:020000040000FA
:04000000CCEF3FF012
:107F98000001DBEF3FF0000EC26E000E936E000E84
:107FA800926E000E956E89508A508C501200CFEC5C
:107FB8003FF08A688C688968080E076E9D0E066E09
:107FC800060EE82EFED7062EFCD7072EFAD7000E8F
:107FD8008A6E000E8C6E000E896E080E076E9D0E5E
:107FE800066E060EE82EFED7062EFCD7072EFAD709
:087FF800DDEF3FF000EF00F0A7
:020000040020DA
:08000000FFFFFFFFFFFFFFFF00
:020000040030CA
:0E000000000C1E1EFF8385FF0FC00FE00F4097
:00000001FF
